:100000000C9460030C9488030C9488030C949A1E3F
:100010000C94BE1E0C94E21E0C94F6220C948803E1
:100020000C9488030C9488030C9488030C94880324
:100030000C9488030C9488030C9488030C94880314
:100040000C94F9160C9488030C94E7190C94191A63
:100050000C9488030C9488030C9488030C948803F4
:100060000C948C2B0C9488034572726F722072650D
:100070006164696E672074656D7065726174757214
:1000800065206D65737361676500526563656976A8
:1000900065642074656D7065726174757265206D3C
:1000A000657373616765004572726F722072656176
:1000B00064696E672074696D65206D65737361672F
:1000C000650052656365697665642074696D6520B5
:1000D0006D657373616765004572726F722072653A
:1000E0006164696E672070726573656E6365207404
:1000F000656D706572617475726573207365747473
:10010000696E67206D657373616765004572726F14
:10011000722072656164696E67206461696C792020
:1001200072616E67652073657474696E67206D65B2
:100130007373616765004572726F722072656164E6
:10014000696E67206461696C792064656661756CAD
:10015000742074656D702073657474696E67206DAA
:10016000657373616765004572726F7220726561B5
:1001700064696E6720546865726D6F737461742072
:100180006F6666206D657373616765004572726F97
:10019000722072656164696E6720546865726D6F64
:1001A00073746174206F6E206D6573736167650091
:1001B0004572726F722072656164696E672054685F
:1001C00065726D6F73746174206F6E2F6F66662039
:1001D0007265736574206D65737361676500457240
:1001E000726F722072656164696E672072656D6FEF
:1001F00074652070696E67206D6573736167650053
:100200004572726F722072656164696E672054680E
:1002100065726D6F73746174206D6F6465206361C6
:100220006C656E646172206576656E7400457272ED
:100230006F722072656164696E6720546865726DC3
:100240006F73746174206D6F64652070726573657F
:100250006E6365206576656E74004572726F7220FC
:1002600072656164696E672070726573656E63653F
:10027000206465746563746564206576656E7400DA
:1002800052656365697665642070726573656E6337
:100290006520646574656374696F6E206576656E4C
:1002A000742066726F6D206465746563746F723A52
:1002B000004572726F722072656164696E672073A7
:1002C00074617274206F66206D6573736167650079
:1002D0004572726F722072656164696E67206D6528
:1002E00073736167653A2000556E6B6E6F776E2091
:1002F0006D65737361676520747970653A20004598
:1003000072726F722072656164696E67206D6573C9
:100310007361676520747970650053656E64696EFA
:1003200067207374617465004572726F7220726524
:100330006164696E67206669656C6400496E766108
:100340006C69642072616E6765206E756D6265729E
:100350000054656D7052616E67653A3A54656D7010
:1003600052616E67652829004461696C7953657430
:1003700074696E67733A3A4461696C795365747451
:10038000696E6773282900496E76616C6964207212
:10039000616E67652073657474696E677300576575
:1003A000656B6C7953657474696E67733A3A576517
:1003B000656B6C7953657474696E67732829005294
:1003C000656164696E672070726573656E63652030
:1003D00074656D7065726174757265732066726F95
:1003E0006D20656570726F6D00436F6E74726F6C17
:1003F0006C65724D6F64656C3A3A436F6E74726FE0
:100400006C6C65724D6F64656C2829004368616E81
:1004100067696E672073637265656E20746F3A203A
:100420000073656300466F726365643A2000204381
:100430004F4D2D45525200504D6F64653A00434D6B
:100440006F64650054696D65206E6F742073657408
:100450000020544C3A00523A004E2F410020545292
:100460003A004D3A002F002F003A003A00427574CE
:10047000746F6E20666F726365206F6666206973A5
:10048000207072657373656400427574746F6E20BA
:10049000666F726365206F6E20697320707265737A
:1004A00073656400427574746F6E206D6F646520AF
:1004B00069732070726573736564004672656520A8
:1004C00072616D3A00446973706C6179206F6B00E2
:1004D000436F6D6D206F6B00436F6E74726F6C6C49
:1004E0006572206F6B004D6F64656C206F6B0053FD
:1004F000657474696E6720757020636F6E74726FB7
:100500006C6C6572730053657475702073746172DE
:10051000740000000008000201000003040700004E
:1005200000000000000001020408102040800102C9
:100530000408102001020408102004040404040428
:100540000404020202020202030303030303000085
:1005500000002300260029000000000025002800DC
:100560002B0000000000240027002A0000C2010028
:100570000100110011000C0000E100000A0025003C
:1005800025002100009600001900390039003600CE
:10059000127A00001F0046004600440080700000F0
:1005A00022004D004D004A00004B0000360075004F
:1005B00075007200403800004A009C009C009900C1
:1005C000802500007200EC00EC00E900C012000081
:1005D000E900DA01DA01D70160090000D701B603AA
:1005E000B603B303B0040000B3036E076E076B07D6
:1005F000580200006E07DC0EDC0ED80E2C01000045
:10060000DC0EC11DC11DBE1D2C20646174613D3016
:1006100078003A20627974652D6164647265737341
:100620003D3078003A20776F72642D6164647265A2
:1006300073733D3078004E657874207265706F7208
:10064000743A20005361766564207265706F72742D
:10065000733A20002D2D2D2D2D2D2D2D2D2D2D2DB1
:100660002D2D2D2D2D2D2D004170706C6963617421
:10067000696F6E204D6F6E69746F72004E414E4906
:100680004E495459494E46CDCCCC3D0AD7233C1750
:10069000B7D13877CC2B329595E6241FB14F0A009D
:1006A0000020410000C84200401C4620BCBE4CCA8D
:1006B0001B0E5AAEC59D7400ED16491A1023312A3F
:1006C00011241FBECFEFD8E0DEBFCDBF11E0A0E008
:1006D000B1E0EEE0F6E602C005900D92A437B10756
:1006E000D9F723E0A4E7B1E001C01D92A730B2071B
:1006F000E1F716E0C0ECD6E004C02297FE010E94AC
:100700005B2FC83BD107C9F70E94E0160C94053354
:100710000C94000040E855E260E070E0FC01848148
:1007200095810C94881FEF92FF920F931F93CF93A4
:10073000DF93EC017B018EE091E09983888386E171
:1007400091E09B838A8319861A861B861C861D86E8
:100750008CE190E00E942F1D8C0120E047E066E0D4
:100760000E94581F1D830C83FF82EE82CE010E94DF
:100770008A031886DF91CF911F910F91FF90EF9020
:100780000895CF93DF93EC018885811119C08C8186
:100790009D81DC01ED91FC910480F581E02D0995AE
:1007A000892B61F08C819D81DC01ED91FC910680AB
:1007B000F781E02D09958B3751F702C081E08887DA
:1007C000DF91CF910895CF92DF92EF92FF920F9336
:1007D0001F93CF93DF931F92CDB7DEB78C016B01D0
:1007E000DC011896FC90F11047C0FB01108220E05C
:1007F000E12CF80184819581DC01ED91FC9104806C
:10080000F581E02D298309952981892BF9F0D801FB
:1008100014968D919C911597DC01ED91FC910680C9
:10082000F781E02D0995282F8B3339F18D3709F1A8
:100830008B3781F081E08E0DF601EE0DF11D2083E6
:10084000F601E80FF11D1082E82ED3CF2B33A9F06B
:100850002D3779F081E0F801808768E273E08DE957
:1008600091E00E940C1BB6018DE991E00E941E1BD5
:1008700004C0FF24F39401C0F12C8F2D0F90DF9161
:10088000CF911F910F91FF90EF90DF90CF9008953F
:10089000DF92EF92FF920F931F93CF93DF93CDB729
:1008A000DEB72A970FB6F894DEBF0FBECDBF8C011E
:1008B0007B01BE016F5F7F4F0E94E303D82EF801DA
:1008C0008085811107C0CE0101960E94A630F701F4
:1008D000918380838D2D2A960FB6F894DEBF0FBECC
:1008E000CDBFDF91CF911F910F91FF90EF90DF90DF
:1008F0000895DF92EF92FF920F931F93CF93DF93B0
:10090000CDB7DEB764970FB6F894DEBF0FBECDBF8C
:100910008C017B01BE016F5F7F4F0E94E303D82EE5
:10092000F8018085811109C0CE0101960E94C43072
:10093000F70160837183828393838D2D64960FB654
:10094000F894DEBF0FBECDBFDF91CF911F910F9105
:10095000FF90EF90DF900895DF92EF92FF920F9358
:100960001F93CF93DF93CDB7DEB764970FB6F8949C
:10097000DEBF0FBECDBF8C017B01BE016F5F7F4F1D
:100980000E94E303D82EF8018085811109C0CE01B1
:1009900001960E94A230F701608371838283938362
:1009A0008D2D64960FB6F894DEBF0FBECDBFDF91DC
:1009B000CF911F910F91FF90EF90DF900895CF930B
:1009C000DF93EC016BE78C819D810E94F11A4AE074
:1009D00050E063E070E08C819D810E94D31B6BE34B
:1009E0008C819D810E94F11A4AE050E060E070E045
:1009F0008C819D810E94D31B6DE78C819D81DF914D
:100A0000CF910C94F11A0C94DF041F93CF93DF93D2
:100A1000EC01162F6BE78C819D810E94F11A4AE050
:100A200050E06AE070E08C819D810E94D31B6BE3F3
:100A30008C819D810E94F11A4AE050E060E070E0F4
:100A40008C819D810E94D31B6BE38C819D810E94D0
:100A5000F11A612F70E04AE050E08C819D810E9484
:100A6000D31B6DE78C819D81DF91CF911F910C94F9
:100A7000F11A0C9405050F931F93CF93DF93CDB715
:100A8000DEB78C016BE7FC01848195810E94F11A2D
:100A90004AE050E061E070E0F801848195810E94B5
:100AA000D31B6BE3F801848195810E94F11A4AE01F
:100AB00050E060E070E0F801848195810E94D31BD2
:100AC0006BE3F801848195810E94F11A4889598964
:100AD0006A897B8922E030E0F801848195810E9457
:100AE0001B1D6DE7F80184819581DF91CF911F91E6
:100AF0000F910C94F11A0F931F93CF93DF93CDB7FF
:100B0000DEB78C016BE7FC01848195810E94F11AAC
:100B10004AE050E068EC70E0F801848195810E9421
:100B2000D31B6BE3F801848195810E94F11A6F81D8
:100B300070E04AE050E0F801848195810E94D31B67
:100B40006BE3F801848195810E94F11A688570E059
:100B50004AE050E0F801848195810E94D31B6BE349
:100B6000F801848195810E94F11A6B8570E04AE05A
:100B700050E0F801848195810E94D31B6BE3F8015A
:100B8000848195810E94F11A6DA170E04AE050E0E5
:100B9000F801848195810E94D31B6BE3F801848165
:100BA00095810E94F11A698570E04AE050E0F801F1
:100BB000848195810E94D31B6BE3F8018481958128
:100BC0000E94F11A6A8570E04AE050E0F8018481E1
:100BD00095810E94D31B6BE3F801848195810E946B
:100BE000F11A4C855D856E857F8522E030E0F80145
:100BF000848195810E941B1D6BE3F801848195819E
:100C00000E94F11A488D598D6A8D7B8D22E030E06B
:100C1000F801848195810E941B1D6BE3F80184819A
:100C200095810E94F11A4C8D5D8D6E8D7F8D22E035
:100C300030E0F801848195810E941B1D6BE3F8016F
:100C4000848195810E94F11A488959896A897B8932
:100C500022E030E0F801848195810E941B1D6BE346
:100C6000F801848195810E94F11A4C895D896E8911
:100C70007F8922E030E0F801848195810E941B1D6C
:100C80006BE3F801848195810E94F11A4EA15FA166
:100C900068A579A52AE030E0F801848195810E9459
:100CA000891B6DE7F80184819581DF91CF911F91B8
:100CB0000F910C94F11A0F931F93CF93DF93CDB73D
:100CC000DEB78C016BE7FC01848195810E94F11AEB
:100CD0004AE050E062E070E0F801848195810E9472
:100CE000D31B6BE3F801848195810E94F11A4AE0DD
:100CF00050E060E070E0F801848195810E94D31B90
:100D00006BE3F801848195810E94F11A48A159A1F1
:100D10006AA17BA122E030E0F801848195810E94E4
:100D20001B1D6DE7F80184819581DF91CF911F91A3
:100D30000F910C94F11ACF92DF92EF92FF920F93E2
:100D40001F93CF93DF93CDB7DEB7A3970FB6F89479
:100D5000DEBF0FBECDBF8C010E949C286B017C01C1
:100D6000F80166817781CE0101960E948D12F8010B
:100D700081859285A385B485A7019601281B390B2F
:100D80004A0B5B0B2F313105410551050CF45FC057
:100D90006AE173E08DE991E00E940C1B4DB75EB7EC
:100DA000435251090FB6F8945EBF0FBE4DBFADB7A9
:100DB000BEB7119683E2FE01319601900D928A959D
:100DC000E1F7C8010E947B050FB6F894DEBF0FBEA5
:100DD000CDBFEDB7FEB7B3970FB6F894FEBF0FBE09
:100DE000EDBFADB7BEB7119683E2FE01319601901B
:100DF0000D928A95E1F7C8010E943B050FB6F89461
:100E0000DEBF0FBECDBF4DB75EB7435251090FB61F
:100E1000F8945EBF0FBE4DBFADB7BEB7119683E26B
:100E2000FE01319601900D928A95E1F7C8010E946A
:100E30005B060FB6F894DEBF0FBECDBF6981C80157
:100E40000E940505F801C186D286E386F486A39642
:100E50000FB6F894DEBF0FBECDBFDF91CF911F91CB
:100E60000F91FF90EF90DF90CF900895FF920F9336
:100E70001F93CF93DF9300D0CDB7DEB78C011A82DA
:100E80001982BE016F5F7F4F0E944804F82E8823AD
:100E9000C1F0F8018085811114C060E872E08DE92D
:100EA00091E00E94CA1A69817A814AE050E08DE996
:100EB00091E00E94DB1BF801868197810E94281532
:100EC00006C06AE572E08DE991E00E940C1B8F2D4F
:100ED0000F900F90DF91CF911F910F91FF90089588
:100EE000FC012085211104C0868197810C9438145F
:100EF0006DE272E08DE991E00C940C1BFC01208501
:100F0000211104C0868197810C943D1460E072E049
:100F10008DE991E00C940C1BFC012085211104C08B
:100F2000868197810C94E7146EED71E08DE991E074
:100F30000C940C1BFC012085211104C08681978133
:100F40000C94BF1560EB71E08DE991E00C940C1BE3
:100F5000FC012085211104C0868197810C946115C4
:100F60006CE871E08DE991E00C940C1BFC0120858C
:100F7000211104C0868197810C94B31567E671E056
:100F80008DE991E00C940C1BFF920F931F93CF936C
:100F9000DF93CDB7DEB728970FB6F894DEBF0FBE4C
:100FA000CDBF8C01BE016F5F7F4F0E944804BE0120
:100FB0006D5F7F4FC8010E944804BE016B5F7F4F89
:100FC000C8010E94AC04F82E882361F0F8018085E6
:100FD000811108C0BE016F5F7F4F868197810E949B
:100FE000D61306C066E371E08DE991E00E940C1B08
:100FF0008F2D28960FB6F894DEBF0FBECDBFDF91C0
:10100000CF911F910F91FF9008959F92AF92BF9241
:10101000CF92DF92EF92FF920F931F93CF93DF93C4
:10102000CDB7DEB72C970FB6F894DEBF0FBECDBF9D
:101030005C01BE01675F7F4F0E94AC04BE016B5F25
:101040007F4FC5010E94AC04BE016F5F7F4FC50199
:101050000E94AC04982E8823A9F0F50180858111A7
:1010600011C0C980DA80EB80FC800D811E812F8148
:10107000388549855A856B857C85868197810E9454
:10108000EC1406C068ED70E08DE991E00E940C1B45
:10109000892D2C960FB6F894DEBF0FBECDBFDF9121
:1010A000CF911F910F91FF90EF90DF90CF90BF9065
:1010B000AF909F9008950F931F93CF93DF93EC0110
:1010C0008B010E944804B8016E5F7F4FCE010E94E1
:1010D0004804B8016C5F7F4FCE010E944804B801FC
:1010E0006A5F7F4FCE010E944804B801685F7F4F5E
:1010F000CE01DF91CF911F910F910C94AC040F930F
:101100001F93CF93DF93EC018B018885811115C06C
:101110008C819D81DC01ED91FC910480F581E02DB5
:101120000995892B51F0B8016A5F7F4FCE01DF919D
:10113000CF911F910F910C945B0880E0DF91CF91CC
:101140001F910F910895FF920F931F93CF93DF93F9
:10115000CDB7DEB762970FB6F894DEBF0FBECDBF36
:101160008C01BE016F5F7F4F0E944804BE016D5F1E
:101170007F4FC8010E944804BE016B5F7F4FC801CA
:101180000E944804BE016F5F7F4FC8010E947F0824
:10119000F82E882361F0F8018085811108C0BE0116
:1011A0006F5F7F4F868197810E94F71306C06CE0C6
:1011B00071E08DE991E00E940C1B8F2D62960FB6B5
:1011C000F894DEBF0FBECDBFDF91CF911F910F917D
:1011D000FF900895FF920F931F93CF93DF9300D05A
:1011E00000D0CDB7DEB78C0119821A821B821C8217
:1011F000BE016F5F7F4F0E947904F82E8823F1F0C3
:10120000F801808581111AC062EC70E08DE991E0EF
:101210000E940C1B49815A816B817C812AE030E05D
:101220008DE991E00E94F31B49815A816B817C8199
:10123000F801868197810E94631306C067EA70E017
:101240008DE991E00E940C1B8F2D0F900F900F9055
:101250000F90DF91CF911F910F91FF900895FF9212
:101260000F931F93CF93DF9300D000D000D0CDB762
:10127000DEB78C01BE016F5F7F4F0E944804BE0144
:101280006D5F7F4FC8010E94AC04F82E8823E9F0FF
:10129000F8018085811119C06AE870E08DE991E05C
:1012A0000E940C1B4B815C816D817E8122E030E0CD
:1012B0008DE991E00E941D1DBE016F5F7F4FF80117
:1012C000868197810E947A1306C068E670E08DE9F6
:1012D00091E00E940C1B8F2D26960FB6F894DEBF6E
:1012E0000FBECDBFDF91CF911F910F91FF90089559
:1012F000FF920F931F93CF93DF9300D0CDB7DEB74C
:101300008C01D80114968D919C911597DC01ED917B
:10131000FC910480F581E02D0995892B09F4A0C08A
:10132000F8011086C8010E94C103D80118968C915B
:1013300081118FC01A821982BE016F5F7F4FC80171
:101340000E944804F82EF8018085882319F06FEF79
:1013500072E081C029813A812836310509F440C004
:10136000CCF42536310599F15CF42130310559F181
:101370002330310509F048C0C8010E9436072AC051
:101380002636310549F127363105F1F5C8010E94AD
:10139000C40720C02B36310559F154F429363105E4
:1013A00019F12A36310581F5C8010E949A073AC021
:1013B0002D36310529F104F12E36310529F5C80104
:1013C0000E948C072FC0C8010E942F0903C0C801CA
:1013D0000E94EA08F82E26C0C8010E94A308FACF8E
:1013E000C8010E94A8071EC0C8010E94B6071AC003
:1013F000C8010E94700716C0C8010E947E0712C073
:10140000C8010E940508E6CF68EE72E08DE991E020
:101410000E94CA1A69817A814AE050E08DE991E020
:101420000E94DB1BFF2031F0D80118968C91882395
:1014300009F467CF60ED72E08DE991E00E94CA1A6D
:1014400069817A814AE050E08DE991E00E94DB1BDE
:1014500058CF61EB72E08DE991E00E940C1B51CFF7
:101460000F900F90DF91CF911F910F91FF900895F2
:1014700002970C9439058F929F92AF92BF92CF92B0
:10148000DF92EF92FF920F931F93CF93DF93EC01C4
:101490005C018CE0A80EB11C8E010C5F1F4F4E0149
:1014A000ECE28E0E911CC12CD12C80EAE82E81E456
:1014B000F82EF8011082F5013797108231961082CC
:1014C00031961082F801C482D582E682F78261E506
:1014D00073E08DE991E00E940C1BF8E0AF0EB11CA7
:1014E000085F1F4F0815190521F768E673E08DE9BD
:1014F00091E00E940C1B80E090E0ACE8B1E48883AE
:101500009983AA83BB8386E08C8388E08E8382E301
:101510008D832EE12F8340E050E06CE971E4488731
:1015200059876A877B878CE08C878DE08E878FE078
:101530008D872F8780E090E0A8E9B1E4888B998BB4
:10154000AA8BBB8B81E18C8B85E18E8B8DE28D8BA1
:101550002F8B488F598F6A8F7B8F8FEF8C8F8E8F59
:101560008D8F8F8F40E050E060EC7FE748A359A358
:101570006AA37BA38CA38EA38DA38FA348A759A78F
:101580006AA77BA7DF91CF911F910F91FF90EF90FA
:10159000DF90CF90BF90AF909F908F900895AF92C3
:1015A000BF92CF92DF92EF920F9365307105C0F436
:1015B000FB0133E0EE0FFF1F3A95E1F73496E80F99
:1015C000F91F408302832183E382A482B582C6820D
:1015D000D7820F91EF90DF90CF90BF90AF9008959A
:1015E0006CE373E08DE991E00F91EF90DF90CF9085
:1015F000BF90AF900C940C1BFC014083518362831D
:10160000738308951F93CF93DF9350E02CE3629F81
:10161000400D511D112420E030E0C0E0D0E0FC017D
:10162000E20FF31F748116816781A581B0E0ECE3BE
:101630007E9FA00DB11D112421964A175B0794F0DF
:1016400070E0FCE31F9F600D711D112446175707C2
:101650004CF4FE0143E0EE0FFF1F4A95E1F7E80F5F
:10166000F91F06C0285F3F4F28323105C1F6FC0143
:101670006081718182819381DF91CF911F91089563
:10168000CF92DF92EF92FF920F931F93CF93DF934E
:101690006C01EC018C010C5C1E4FCE010E943B0AD8
:1016A000AC96C017D107C9F76EE973E08DE991E0F8
:1016B0000E940C1BF601EC52FE4F108231961082F4
:1016C00031961082EF55FF4F10823196108231967D
:1016D00010823596108231961082319610821182D6
:1016E00012821382349681E0808331961082319683
:1016F0001082118212821382349610821182128219
:1017000013823496108211821282138234961082D0
:1017100011821282138276018AE6E81A8DEFF80AA6
:1017200080E090E0A0EAB1E4F70180839183A28396
:10173000B383E601C656DD4F40E050E068E871E44F
:10174000488359836A837B83860102561D4FF801C3
:101750004083518362837383349610821182128294
:10176000138269EE73E08DE991E00E940C1B84E620
:1017700090E00E940F31813001F56FEB73E08DE94D
:1017800091E00E940C1B85E690E00E941731F70162
:10179000608371838283938389E690E00E9417318E
:1017A000F80160837183828393838DE690E00E94C9
:1017B0001731688379838A839B83DF91CF911F914F
:1017C0000F91FF90EF90DF90CF90089586589D4F36
:1017D000FC0171836083089584589D4FFC017183DF
:1017E00060830895FC01EB57FD4F2081608326172D
:1017F00061F0662351F03B9780819181DC01ED918E
:10180000FC910190F081E02D099408958B579D4F34
:10181000FC0180810895AF92BF92CF92DF92EF9248
:10182000FF920F931F93CF93DF93EC01CA56DD4FC6
:10183000488359836A837B835C0142E6A41A4DEF97
:10184000B40AF501C082D182E282F3827C01F6E61D
:10185000EF1AFDEFFF0AF701008311832283338320
:1018600061E084E690E00E941D31488159816A81DF
:101870007B8185E690E00E942B31F501408151810A
:101880006281738189E690E00E942B31F7014081EB
:101890005181628173818DE690E0DF91CF911F913C
:1018A0000F91FF90EF90DF90CF90BF90AF900C948E
:1018B0002B31CF93DF93EC010E949C28CE55DD4F56
:1018C000688379838A839B83DF91CF9108958C57B6
:1018D0009D4F22E0FC01208308958C579D4F21E00D
:1018E000FC0120830895FC01EC57FD4F81E09081BD
:1018F000923009F080E008950F931F938C010E94AD
:101900009C28F801EE56FD4F008111812281338120
:10191000601B710B820B930B21E0693572408105CE
:10192000910508F420E0822F1F910F910895CF9325
:10193000DF93EC010E949C28CE56DD4F68837983AB
:101940008A839B83DF91CF9108950F931F938C011E
:101950000E949C28F801E657FD4F008111812281E9
:101960003381601B710B820B930B21E0653B71058A
:101970008105910508F420E0822F1F910F910895B1
:101980000F931F938C010E949C28F801E257FD4F92
:101990000081118122813381601B710B820B930BBB
:1019A00021E06F3171058105910508F420E0822F57
:1019B0001F910F9108951F93CF93DF931F92CDB77F
:1019C000DEB7142F70E0FC01E158FD4F3081A4E335
:1019D000B1E03A9FF0013B9FF00D11248E0F9F1F45
:1019E00029830E94CC152981422F612F0F90DF910E
:1019F000CF911F910C94020B0F931F938C010E94A7
:101A00009C28F801EE55FD4F008111812281338120
:101A1000601B710B820B930B21E0683572408105CE
:101A2000910508F020E0822F1F910F910895CF9328
:101A3000DF93EC01842F422F50E09CE3899F400DFF
:101A4000511D1124662757FD6095762F4658514049
:101A5000610971094F3D53406105710518F0C25687
:101A6000DD4F0AC0CE010E94FC0C882319F0CA5633
:101A7000DD4F02C0C656DD4F688179818A819B8126
:101A8000DF91CF9108950F931F93CF93DF9300D0F1
:101A9000CDB7DEB78C010E9411298A830E941929D3
:101AA00089830E943129682FF801EC57FD4F80810E
:101AB00029814A81823049F4C8010F900F90DF914B
:101AC000CF911F910F910C94DB0CC8010F900F90D8
:101AD000DF91CF911F910F910C94170DCF92DF9250
:101AE000EF92FF92CF93DF936A017B01F901E056F9
:101AF000FF4F8081883269F4E901CE55DF4F88813C
:101B000090E0019668E270E00E94ED2E888387E203
:101B1000808340814832C9F0E901CF55DF4F5881B9
:101B2000852F90E0D90164E0569FA00DB11D1124CE
:101B3000CD92DD92ED92FC921397019668E270E0EF
:101B40000E94ED2E88834F5F4083DF91CF91FF90FD
:101B5000EF90DF90CF900895CF92DF92EF92FF92B7
:101B6000CF93DF93EC016A017B010E949C28FE0168
:101B7000E257FD4F60837183828393839E012952D4
:101B80003E4FB701A601CE01DF91CF91FF90EF90BC
:101B9000DF90CF900C946E0DCF92DF92EF92FF9278
:101BA000CF93DF93EC016A017B010E949C28FE0128
:101BB000E657FD4F60837183828393839E012C5C83
:101BC0003E4FB701A601CE01DF91CF91FF90EF907C
:101BD000DF90CF900C946E0DCF92DF92EF92FF9238
:101BE0000F931F9368017901672B99F49A01215093
:101BF00031092730310568F4BA010E94CC15B701CC
:101C0000A6011F910F91FF90EF90DF90CF900C9461
:101C1000FC0A1F910F91FF90EF90DF90CF900895F5
:101C20006F927F928F929F92AF92BF92CF92DF92EC
:101C3000EF92FF920F931F93CF93DF93E901F80187
:101C4000672B61F59A01215031092730310530F5B4
:101C5000C530D10518F5A480B580C680D780E38053
:101C6000F12C028110E06180712C8080912CBA01EE
:101C70000E94CC159301A401BE010E94CF0ADF91FE
:101C8000CF911F910F91FF90EF90DF90CF90BF9079
:101C9000AF909F908F907F906F90089567E873E06A
:101CA0008DE991E0DF91CF911F910F91FF90EF901F
:101CB000DF90CF90BF90AF909F908F907F906F906C
:101CC0000C940C1B80589D4FFC01108211821282D3
:101CD000138208950F931F938C010E949C28F80192
:101CE000E058FD4F0081118122813381601B710B0F
:101CF000820B930B21E0683077408105910508F055
:101D000020E0822F1F910F910895CF93DF93EC0174
:101D10000E946A0E882369F0C058DD4F0990D8816F
:101D2000C02D0E949C289E01285F384F261B370B30
:101D300002C020E030E0C901DF91CF9108958A57B9
:101D40009D4FFC01608171818281938108958A5742
:101D50009D4FFC01408351836283738308957F927A
:101D60008F929F92AF92BF92CF92DF92EF92FF92AB
:101D70000F931F93CF93DF938B01FB01E056FF4F2F
:101D800070807720B9F1C0E0D0E0812C912C540113
:101D90007B0122EAE20EF11C38E2C32ED12CC715DA
:101DA000E0F4F70180819E01280F311DC901B601C1
:101DB0000E94ED2E880F991F880F991F800F911F89
:101DC000FC012081318142815381C501B4010E940F
:101DD000C32C4B015C012196E2CF672D70E080E0BF
:101DE00090E00E94C62D9B01AC01C501B4010E9488
:101DF0002B2D04C060E070E080EC9FE7DF91CF9175
:101E00001F910F91FF90EF90DF90CF90BF90AF9018
:101E10009F908F907F900895BC0169527E4F0C94E3
:101E2000AF0EBC016C5C7E4F0C94AF0EFC01E95808
:101E3000FD4F20812223D1F0E05AF109DC01A7589F
:101E4000BD4F3C912150822F90E0830F911D68E29D
:101E500070E00E94ED2E880F991F880F991FE80FE0
:101E6000F91F6081718182819381089560E070E043
:101E700080EC9FE70895FC01EC52FE4F2081222365
:101E8000D1F0E05AF109DC01AA52BE4F3C91215039
:101E9000822F90E0830F911D68E270E00E94ED2E8A
:101EA000880F991F880F991FE80FF91F60817181B2
:101EB00082819381089560E070E080EC9FE708954F
:101EC000FC01E258FD4F20816083261751F03297C4
:101ED00080819181DC01ED91FC910190F081E02DF8
:101EE0000994089561E00C94600FCF93DF93EC01A7
:101EF0000E949C28FE01E058FD4F6083718382831D
:101F00009383CE01DF91CF910C94720F60E00C941B
:101F1000600FCF93DF93EC010E949C28FE01E058F4
:101F2000FD4F6083718382839383CE01DF91CF91D4
:101F30000C94860F82589D4FFC0180810895CF93A9
:101F4000DF93EC0140E060E0888199810E94D52513
:101F500062E674E0888199810E94CA1A8A819B8115
:101F60000E94A50C2A813B81882321F0C9010E948F
:101F70000C0F03C0C9010E94110FAB01BC0122E08C
:101F800030E0888199810E941B1D6DE574E0888195
:101F900099810E94CA1A8A819B810E94A50C88237C
:101FA00039F069E574E0888199810E94CA1A0CC0F1
:101FB0008A819B810E943B0FAB01BC0122E030E093
:101FC000888199810E941B1D41E060E08881998190
:101FD0000E94D52566E574E0888199810E94CA1A1D
:101FE0008A819B810E94430DAB01BC0122E030E05D
:101FF000888199810E941B1D61E574E08881998127
:102000000E94CA1A8A819B810E94160FAB01BC01F3
:1020100022E030E088819981DF91CF910C941B1DE3
:10202000CF93DF93EC0140E060E0888199810E94CA
:10203000D5258A819B810E94730C28813981882350
:1020400031F06EE374E0C9010E94CA1A11C067E35F
:1020500074E0C9010E94CA1A8A819B810E94FC0C0B
:10206000682F70E04AE050E0888199810E94D31B7C
:102070008A819B810E947C0C882331F06EE274E09F
:10208000888199810E94CA1A8A819B810E946A0E66
:102090008823F9F041E060E0888199810E94D5258C
:1020A00065E274E0888199810E94CA1A8A819B81C5
:1020B0000E94850E4AE050E0BC01888199810E940F
:1020C000D31B61E274E088819981DF91CF910C94F8
:1020D000CA1ADF91CF910895CF93DF93EC0120E0EE
:1020E00042E060E1888199810E94412620E04FEF23
:1020F00060E0888199810E94212688819981DF9101
:10210000CF910C94CE25EF92FF920F931F93CF9314
:10211000DF931F92CDB7DEB77C018B01FC013183C9
:10212000208349830E946C10F70113830283498145
:1021300044830E949C28F701668377838087918778
:102140008FE99FE0938782871586148682E291E16A
:1021500097878687118A108A80E190E1938B828B22
:10216000158A148A15820F90DF91CF911F910F91DC
:10217000FF90EF9008950F931F93CF93DF93EB01A0
:102180008A014A30510524F460E3CE010E94F11A1D
:102190004AE050E0B801CE01DF91CF911F910F913D
:1021A0000C94D31B0F931F93CF93DF938C01EB0100
:1021B0000E941129AC01BE01C8010E94BB106BE650
:1021C00074E0CE010E94CA1A0E941929AC01BE0116
:1021D000C8010E94BB1069E674E0CE010E94CA1AD1
:1021E0000E942129AC01BE01C8010E94BB1041E040
:1021F00060E0F801808191810E94D5250E94292903
:10220000AC01BE01C8010E94BB1067E674E0CE01BC
:102210000E94CA1A0E943929AC01BE01C8010E945D
:10222000BB1065E674E0CE010E94CA1A0E944129E3
:102230004AE050E0BC01CE01DF91CF911F910F9198
:102240000C94D31BCF93DF93EC0140E060E08881D6
:1022500099810E94D5250E94452928813981892BA1
:1022600031F0B901CE01DF91CF910C94D21064E42A
:1022700074E0C901DF91CF910C94CA1ACF92DF921A
:10228000EF92FF920F931F93CF93DF93EC010E9485
:102290009C288B019C018C8168017901C81AD108A6
:1022A000E108F1084E815F8168857985C416D506FD
:1022B000E606F70608F44EC08D8190E0019663E0D3
:1022C00070E00E94ED2E8D830E831F83288739874F
:1022D0006CE074E08DE991E00E94CA1A4AE050E097
:1022E0006D818DE991E00E94191C888199810E947D
:1022F000BF252D8130E0F9013396EE0FFF1FEE0F61
:10230000FF1FEC0FFD1F40815181220F331F220F51
:10231000331FCA019595879540FD07C0FE01E20F66
:10232000F31F0284F385E02D12C0DE01A20FB31F5C
:10233000FE01E80FF91F0190F081E02D1A962D9112
:102340003C911B97E20FF31F0190F081E02D8C0F61
:102350009D1F09952D8130E0F9013396EE0FFF1F87
:10236000EE0FFF1FEC0FFD1F40815181220F331F25
:10237000220F331FCA019595879540FD07C0FE01C6
:10238000E20FF31F0284F385E02D12C0DE01A20FDD
:10239000B31FFE01E80FF91F0190F081E02D1A969E
:1023A0002D913C911B97E20FF31F0190F081E02DDE
:1023B0008C0F9D1F09958A819B810E949A0F88230B
:1023C00051F08A819B810E946A0E811104C022E330
:1023D00042E364EB2FC08A819B810E949A0F811196
:1023E0000AC08A819B810E946A0E811104C020EF7D
:1023F00046E969E11FC08A819B810E949A0F882368
:1024000051F08A819B810E946A0E882321F020E08E
:1024100040E06FEF0FC08A819B810E949A0F81116B
:1024200015C08A819B810E946A0E882379F02FEF64
:1024300040E060E088819981DF91CF911F910F91F9
:10244000FF90EF90DF90CF900C942126DF91CF91F9
:102450001F910F91FF90EF90DF90CF9008950F9311
:102460001F93CF93DF931F92CDB7DEB780E190E04B
:1024700069830E942F1D8C010E942A206981C80156
:102480000E94482063E0C8010E945C2068EE73E06F
:10249000C8010E945F20C8010E944E20C8010F9011
:1024A000DF91CF911F910F9108950F931F93CF93B9
:1024B000DF93EC017983688361E088E00E9408186B
:1024C00060E08AE00E94081861E089E00E94081834
:1024D00062E0CE010E942F129D838C8363E0CE01C7
:1024E0000E942F129F838E8364E0CE010E942F12E0
:1024F000998788878EE090E00E942F1D8C0126E04E
:1025000046E16EE00E94F3231B830A83C801DF913A
:10251000CF911F910F910C94FA230F931F93CF9398
:10252000DF93EC018B01FB01808191810E949A0F66
:102530008883F801808191810E946A0E8983F80165
:10254000808191810E94730C91E098279C83F8010F
:10255000808191810E947C0C8A83F8018081918125
:102560000E94A50C8B83F801808191810E94160F37
:1025700069877A878B879C87F801808191810E9487
:102580000C0F6D877E878F87988BF80180819181F2
:102590000E94A50C811113C0F801808191810E94D5
:1025A0003B0F698B7A8B8B8B9C8BF801808191819F
:1025B0000E94110F6D8B7E8B8F8B988F0CC040E02B
:1025C00050E060EC7FE7498B5A8B6B8B7C8B4D8B9B
:1025D0005E8B6F8B788FF801808191810E94430D13
:1025E0006D837E838F839887F801808191810E941B
:1025F0009F0E698F7A8F8B8F9C8FF80180819181DC
:102600000E94060C8D8FF801808191810E94FC0C44
:102610008E8F0E949C286F8F78A389A39AA3CE01E6
:10262000DF91CF911F910F9108958F929F92AF925A
:10263000BF92CF92DF92EF92FF92CF93DF93EC01A4
:102640008A819B810E9434256B017C0160E08A8134
:102650009B810E94BA244B015C019B01AC010E944A
:10266000DD2E81110DC020E030E0A901C501B401CB
:102670000E94C32CAB01BC01888199810E94AC0DE2
:10268000A7019601C701B6010E94DD2E811110C07D
:10269000B701A60188819981DF91CF91FF90EF90DA
:1026A000DF90CF90BF90AF909F908F900C94A70E2B
:1026B000DF91CF91FF90EF90DF90CF90BF90AF90E0
:1026C0009F908F900895CF92DF92EF92FF926A01D0
:1026D0007B01FC01808191810E94970CC701B601AA
:1026E0000E946123C701B601FF90EF90DF90CF9069
:1026F0000C946B288F929F92AF92BF92CF92DF92F1
:10270000EF92FF920F931F93CF93DF93EC018B0116
:10271000FB01808191810197E1F582809380A48003
:10272000B580888199810E94110F6B017C0188819D
:1027300099810E94A50C811117C0A7019601C701BC
:10274000B6010E94DD2E81110FC0A5019401C701C1
:10275000B6010E94C22C9F7720E030E040E051E4B7
:102760000E94272D87FF15C0F801428153816481A3
:10277000758188819981DF91CF911F910F91FF9091
:10278000EF90DF90CF90BF90AF909F908F900C9480
:10279000CC0DDF91CF911F910F91FF90EF90DF90C3
:1027A000CF90BF90AF909F908F900895EF92FF923F
:1027B0000F931F93CF93DF937C01EB01FC0180818A
:1027C00091810E94970C0C811D812E813F814A814D
:1027D0005B8168817981F701808191810E94EC0D94
:1027E000DF91CF911F910F91FF90EF900895EF929D
:1027F000FF920F931F93CF93DF93CDB7DEB7289748
:102800000FB6F894DEBF0FBECDBF7C018B01FC017B
:10281000808191810E94970CF801468557856089D7
:102820007189848592852085368139832A839B83AB
:102830008C834D835E836F837887248135814281C9
:102840005381608171818E010F5F1F4FF70180817D
:1028500091810E94100E28960FB6F894DEBF0FBE2D
:10286000CDBFDF91CF911F910F91FF90EF90089511
:10287000FC01808191810C946D0CFC01808191811F
:102880000C94670CCF93DF93EC018AE00E947718D9
:10289000019779F461E089E00E944118888199816B
:1028A0000E94590C61E088819981DF91CF910C944D
:1028B000F20B60E0888199810E94F20B60E089E070
:1028C000DF91CF910C944118CF93DF93EC018C8171
:1028D0009D810E9466208130C1F464EA74E08DE934
:1028E00091E00E940C1B888199810E94730C2881C1
:1028F0003981882329F0C901DF91CF910C946D0CA7
:10290000C901DF91CF910C94670CDF91CF910895AD
:102910000F931F93CF93DF9300D000D0CDB7DEB7D6
:102920008C01FC01808191810E946A0E81113AC064
:10293000F801808191810E94430D9B01AC01F80157
:102940008081918129833A834B835C830E94A50C0B
:10295000F8016081718129813A814B815C8181110B
:1029600008C0CB010E94110F29813A814B815C8103
:102970000BC0CB0129833A834B835C830E940C0FED
:102980005C814B813A8129810E94272DF8012081A9
:10299000318187FF04C0C9010E94720F03C0C901C1
:1029A0000E94860FF801808191810E949A0F8823EE
:1029B00011F061E001C060E088E00F900F900F908F
:1029C0000F90DF91CF911F910F910C944118FC0152
:1029D000808191810C94970C6F927F928F929F923D
:1029E000AF92BF92CF92DF92EF92FF920F931F931D
:1029F000CF93DF9300D000D0CDB7DEB73C014801C4
:102A00005901FC018081918149835A836B837C83C6
:102A10000E94970C9501840149815A816B817C81C8
:102A2000F301808191810E940B0C0F900F900F9009
:102A30000F90DF91CF911F910F91FF90EF90DF905A
:102A4000CF90BF90AF909F908F907F906F900895A0
:102A5000CF93DF93EC01888199810E94970C888144
:102A60009981DF91CF910C94590CCF93DF93EC01B6
:102A7000888199810E946A0E28813981882329F0F2
:102A8000C901DF91CF910C94620EC901DF91CF9102
:102A90000C94750FCF93DF93EC018E819F810E9480
:102AA0006620813059F469E874E08DE991E00E9474
:102AB0000C1BCE01DF91CF910C943515DF91CF9196
:102AC0000895CF93DF93EC01888199810E94970C40
:102AD000CE01DF91CF910C943515CF93DF93EC01AC
:102AE000888199810E946A0E28813981882329F082
:102AF000C901DF91CF910C94620EC901DF91CF9192
:102B00000C94890FCF93DF93EC01888599850E94FF
:102B10006620813059F46DE674E08DE991E00E9401
:102B20000C1BCE01DF91CF910C946D15DF91CF91ED
:102B30000895CF93DF93EC01888199810E94C00CA6
:102B4000882319F0CE010E941513CE010E9464144F
:102B5000CE010E944A15CE010E948215CE01DF915E
:102B6000CF910C944214CF93DF93EC01888199812B
:102B70000E94970CCE01DF91CF910C946D15CF93ED
:102B8000DF93EC01888199810E94970C888199815B
:102B9000DF91CF910C94620E615071094CE2469F17
:102BA0009001479F300D1124820F931F0895CF93FA
:102BB000DF9300D0CDB7DEB720910103309102033F
:102BC0002115310511F427E033E0CE010196821B77
:102BD000930B0F900F90DF91CF910895CF93DF93D8
:102BE00026E040E855E260E070E08DE991E00E9467
:102BF000851966E075E08DE991E00E940C1B88ED77
:102C000093E20E944A296FEE74E08DE991E00E9400
:102C10000C1B86EA92E00E942F1DEC010E94400BE3
:102C2000D0937F01C0937E0166EE74E08DE991E060
:102C30000E940C1B8AE090E00E942F1DEC01609125
:102C40007E0170917F010E945512D0937B01C09349
:102C50007A0168ED74E08DE991E00E940C1B8EE032
:102C600090E00E942F1DEC0160917A0170917B0130
:102C70000E949303D0937D01C0937C01209721F0A3
:102C8000BE016E5F7F4F02C060E070E080917E0108
:102C900090917F010E94EC0B60917C0170917D010D
:102CA00080917E0190917F010E94E60B60ED74E0BF
:102CB0008DE991E00E940C1B86E190E00E942F1D9F
:102CC000EC0160917E0170917F0120E831E043E0EA
:102CD0000E948310D0937901C093780165EC74E071
:102CE0008DE991E00E940C1B0E949C286093740166
:102CF00070937501809376019093770141E06DE9BF
:102D000071E08AE891E00E94E12168E070E08AE8E1
:102D100091E0DF91CF910C9420210F931F938AE8CB
:102D200091E00E94372180917C0190917D010E9469
:102D3000780980917A0190917B010E949915809188
:102D40007A0190917B010E94881480917801909182
:102D500079010E943E1180917C0190917D010E9439
:102D60009B060E949C28009174011091750120918E
:102D7000760130917701601B710B820B930B6B30E6
:102D8000710581059105C8F06BEB74E08DE991E068
:102D90000E94CA1A0E94D7154AE050E0BC018DE992
:102DA00091E00E94DB1B0E949C2860937401709349
:102DB000750180937601909377011F910F9108958B
:102DC0000E94A4170E94EE15CFECD8E10E948D1648
:102DD0002097E1F30E94CF18F9CF4AE050E064EF6A
:102DE00071E08AE891E00E94162180E891E00C945D
:102DF0007F251F920F920FB60F9211242F933F93AE
:102E00008F939F93AF93BF9380919501909196017B
:102E1000A0919701B09198013091940123E0230F84
:102E20002D3720F40196A11DB11D05C026E8230F02
:102E30000296A11DB11D209394018093950190935A
:102E40009601A0939701B093980180919901909178
:102E50009A01A0919B01B0919C010196A11DB11D09
:102E60008093990190939A01A0939B01B0939C0148
:102E7000BF91AF919F918F913F912F910F900FBE76
:102E80000F901F9018952FB7F8946091950170914D
:102E9000960180919701909198012FBF08953FB7B7
:102EA000F8948091990190919A01A0919B01B09121
:102EB0009C0126B5A89B05C02F3F19F00196A11DC6
:102EC000B11D3FBF6627782F892F9A2F620F711D82
:102ED000811D911D42E0660F771F881F991F4A953B
:102EE000D1F70895CF92DF92EF92FF92CF93DF93C5
:102EF0006B017C010E944F17EB01C114D104E10466
:102F0000F10489F00E9460290E944F176C1B7D0B11
:102F1000683E734090F381E0C81AD108E108F108D7
:102F2000C851DC4FEACFDF91CF91FF90EF90DF9057
:102F3000CF900895019739F0880F991F880F991F36
:102F400002970197F1F70895789484B5826084BD63
:102F500084B5816084BD85B5826085BD85B581609D
:102F600085BDEEE6F0E0808181608083E1E8F0E0FD
:102F70001082808182608083808181608083E0E82C
:102F8000F0E0808181608083E1EBF0E0808184600B
:102F90008083E0EBF0E0808181608083EAE7F0E00D
:102FA0008081846080838081826080838081816071
:102FB00080838081806880831092C100089583306F
:102FC00081F028F4813099F08230A1F008958730A3
:102FD000A9F08830B9F08430D1F4809180008F7DE1
:102FE00003C0809180008F7780938000089584B51E
:102FF0008F7702C084B58F7D84BD08958091B00025
:103000008F7703C08091B0008F7D8093B0000895CA
:10301000CF93DF9390E0FC01EA5DFA4F2491FC012D
:10302000E65CFA4F8491882349F190E0880F991F5C
:10303000FC01EE59FA4FA591B491885A9A4FFC01C0
:10304000C591D4919FB7611108C0F8948C912095D7
:1030500082238C93888182230AC0623051F4F894D1
:103060008C91322F309583238C938881822B888397
:1030700004C0F8948C91822B8C939FBFDF91CF91E9
:1030800008950F931F93CF93DF931F92CDB7DEB7B1
:10309000282F30E0F901EE5EFA4F8491F901EA5DE4
:1030A000FA4F1491F901E65CFA4F04910023C9F03C
:1030B000882321F069830E94DF176981E02FF0E007
:1030C000EE0FFF1FE85AFA4FA591B4919FB7F894FD
:1030D0008C91611103C01095812301C0812B8C93C9
:1030E0009FBF0F90DF91CF911F910F910895CF93C4
:1030F000DF93282F30E0F901EE5EFA4F8491F90159
:10310000EA5DFA4FD491F901E65CFA4FC491CC2301
:1031100091F081110E94DF17EC2FF0E0EE0FFF1FFE
:10312000E25BFA4FA591B4912C912D2381E090E0C0
:1031300021F480E002C080E090E0DF91CF9108951B
:10314000FC01818D228D90E0805C9F4F821B910954
:1031500060E470E00E94ED2E0895FC01918D828D57
:10316000981731F0828DE80FF11D858D90E008955C
:103170008FEF9FEF0895FC01918D828D981761F07C
:10318000828DDF01A80FB11D5D968C91928D9F5F9E
:103190009F73928F90E008958FEF9FEF08958FE3D4
:1031A0009AE1892B49F080E090E0892B29F00E9478
:1031B0003F1A81110C9400000895FC01848DDF01F9
:1031C000A80FB11DA35ABF4F2C91848D90E001969A
:1031D0008F739927848FA689B7892C93A089B18989
:1031E0008C9180648C93938D848D981306C0028893
:1031F000F389E02D80818F7D80830895CF93DF93C5
:10320000EC01888D8823C9F0EA89FB89808185FDDE
:1032100005C0A889B9898C9186FD0FC00FB607FC3F
:10322000F5CF808185FFF2CFA889B9898C9185FF80
:10323000EDCFCE010E94DD18E7CFDF91CF91089549
:10324000CF92DF92FF920F931F93CF93DF931F9242
:10325000CDB7DEB76C01DC015B969C915B975C9609
:103260008C915C97981307C05096ED91FC91519703
:10327000808185FD32C0F601038D10E00F5F1F4F86
:103280000F731127F02EF601848DF81211C00FB6BE
:1032900007FCF9CFD6015096ED91FC9151978081B2
:1032A00085FFF1CFC60169830E94DD186981EBCFEC
:1032B000838DE80FF11DE35AFF4F6083D6015B96C3
:1032C0000C935B975296ED91FC91539780818062AD
:1032D000808381E058968C930DC0D6015696ED916F
:1032E000FC91579760835096ED91FC9151978081A6
:1032F0008064808381E090E00F90DF91CF911F91F7
:103300000F91FF90DF90CF900895BF92CF92DF9200
:10331000EF92FF92CF93DF93EC016A017B01B22E13
:10332000E889F98982E08083411581EE58076105BB
:103330007105A1F060E079E08DE390E0A7019601CE
:103340000E94012F21503109410951095695479595
:1033500037952795211580E1380798F0E889F98994
:10336000108260E874E88EE190E0A70196010E9467
:10337000012F21503109410951095695479537953B
:103380002795EC85FD853083EE85FF852083188E9B
:10339000EC89FD89B082EA89FB8980818061808324
:1033A000EA89FB89808188608083EA89FB89808142
:1033B00080688083EA89FB8980818F7D8083DF91AB
:1033C000CF91FF90EF90DF90CF90BF9008951F9224
:1033D0000F920FB60F9211242F938F939F93EF9319
:1033E000FF93E091AD01F091AE018081E091B301D6
:1033F000F091B40182FD12C090818091B6018F5F7F
:103400008F732091B701821751F0E091B601F0E07F
:10341000E356FE4F958F8093B60101C08081FF91E6
:10342000EF919F918F912F910F900FBE0F901F9052
:1034300018951F920F920FB60F9211242F933F935E
:103440004F935F936F937F938F939F93AF93BF93AC
:10345000EF93FF938DE991E00E94DD18FF91EF91CA
:10346000BF91AF919F918F917F916F915F914F919C
:103470003F912F910F900FBE0F901F9018958DE9DF
:1034800091E00E94A01821E0892B09F420E0822F0E
:1034900008951092A00110929F0188EE93E0A0E0A1
:1034A000B0E08093A1019093A201A093A301B093F7
:1034B000A4018CE191E090939E0180939D0185ECA5
:1034C00090E09093AA018093A90184EC90E09093FE
:1034D000AC018093AB0180EC90E09093AE018093BF
:1034E000AD0181EC90E09093B0018093AF0182EC4C
:1034F00090E09093B2018093B10186EC90E09093BC
:10350000B4018093B3011092B6011092B7011092EA
:10351000B8011092B9010895CF92DF92EF92FF9215
:103520000F931F93CF93DF936C017A01EB01E60EAB
:10353000F71E00E010E0CE15DF0561F06991D601BD
:10354000ED91FC910190F081E02DC6010995080FE5
:10355000191FF1CFC801DF91CF911F910F91FF90FB
:10356000EF90DF90CF9008956115710581F0DB0138
:103570000D900020E9F7AD0141505109461B570B52
:10358000DC01ED91FC910280F381E02D099480E053
:1035900090E00895EF92FF920F931F93CF93DF93E4
:1035A0008C01FB01C0E0D0E064917F018FEFE81A4D
:1035B000F80A662361F0D801ED91FC910190F08149
:1035C000E02DC8010995C80FD91FF701EDCFCE0135
:1035D000DF91CF911F910F91FF90EF9008950C9480
:1035E000B41ADC01ED91FC910190F081E02D099479
:1035F0000F931F93CF93DF93EC016DE00E94F11ABC
:103600008C016AE0CE010E94F11A800F911FDF91B8
:10361000CF911F910F9108950F931F93CF93DF9335
:10362000EC010E94CA1A8C01CE010E94F81A800F88
:10363000911FDF91CF911F910F9108950F931F93C9
:10364000CF93DF93EC010E94B41A8C01CE010E944B
:10365000F81A800F911FDF91CF911F910F9108955C
:103660008F929F92AF92BF92CF92DF92EF92FF9292
:103670000F931F93CF93DF93CDB7DEB7A1970FB60C
:10368000F894DEBF0FBECDBF7C01C42EE52FCB0169
:10369000D22E19A221E02D1510F02AE0D22E8E0193
:1036A0000F5D1F4F8D2C912CA12CB12C6C2D7E2FDA
:1036B000A50194010E94012F8C2DD29E8019112406
:1036C000015011098A3014F4805D01C0895CF80151
:1036D0008083211531054105510521F0C22EE32FCC
:1036E000CA01E4CFB801C7010E94B41AA1960FB66F
:1036F000F894DEBF0FBECDBFDF91CF911F910F9128
:10370000FF90EF90DF90CF90BF90AF909F908F9001
:103710000895CF92DF92EF92FF920F931F93CF9372
:10372000DF93EC016A017B012115310579F4E88111
:10373000F9810190F081E02D642FDF91CF911F91ED
:103740000F91FF90EF90DF90CF9009942A303105D0
:10375000E9F477FF1AC06DE20E94F11A8C01442748
:103760005527BA014C195D096E097F092AE0CE017F
:103770000E94301B800F911FDF91CF911F910F91FD
:10378000FF90EF90DF90CF9008952AE0B701A60157
:10379000CE01DF91CF911F910F91FF90EF90DF90BD
:1037A000CF900C94301B9A01AB01662757FD6095B2
:1037B000762F0C94891B0F931F93CF93DF93EC010B
:1037C0009A01AB01662757FD6095762F0E94891BF1
:1037D0008C01CE010E94F81A800F911FDF91CF91CA
:1037E0001F910F9108950F931F93CF93DF93EC01D7
:1037F0000E94891B8C01CE010E94F81A800F911F34
:10380000DF91CF911F910F9108952115310541F45A
:10381000DC01ED91FC910190F081E02D642F099481
:103820000C94301B9A01462F50E060E070E00C943D
:10383000051C0F931F93CF93DF93EC019A01462F42
:1038400050E060E070E00E94051C8C01CE010E94F7
:10385000F81A800F911FDF91CF911F910F9108955A
:103860004F925F926F927F928F929F92AF92BF9290
:10387000CF92DF92EF92FF920F931F93CF93DF933C
:10388000EC016A017B01B22E9A01AB01C701B601BE
:103890000E94DD2E882319F068E271E027C026011E
:1038A0003701E89477F82FEF3FEF4FE75FE7C30169
:1038B000B2010E94DD2E81110DC02FEF3FEF4FE7C7
:1038C0005FE7C301B2010E94272D18161CF46CE2B9
:1038D00071E00CC02FEF3FEF4FE75FE4C701B60187
:1038E0000E94762E1816ACF460E371E0CE01DF91F1
:1038F000CF911F910F91FF90EF90DF90CF90BF90ED
:10390000AF909F908F907F906F905F904F900C94AE
:10391000B41A2FEF3FEF4FE75FECC701B6010E94EB
:10392000272D87FDE1CF20E030E0A901C701B601D6
:103930000E94272D87FF0AC06DE2CE010E94F11A76
:103940008C01F7FAF094F7F8F09402C000E010E070
:10395000A12C60E070E080E09FE3AB1441F020E038
:1039600030E040E251E40E942B2DA394F6CF9B015E
:10397000AC01C701B6010E94C32C6B017C010E94FF
:10398000982D2B013C010E94C42D9B01AC01C70165
:10399000B6010E94C22C6B017C012AE0B301A20196
:1039A000CE010E94301B080F191FBB2039F064E3C1
:1039B00071E0CE010E94B41A080F191F7B2C7720EA
:1039C00041F120E030E040E251E4C701B6010E943D
:1039D0007A2E6B017C010E94932D4B01AA2497FC47
:1039E000A094BA2C2AE030E0B501A401CE010E94D7
:1039F000891B080F191FC501B4010E94C62D9B0128
:103A0000AC01C701B6010E94C22C6B017C017A9403
:103A1000D6CFC801DF91CF911F910F91FF90EF900A
:103A2000DF90CF90BF90AF909F908F907F906F90DE
:103A30005F904F9008950C94301C0F931F93CF9379
:103A4000DF93EC010E94301C8C01CE010E94F81A19
:103A5000800F911FDF91CF911F910F9108950C94CA
:103A60007B2F20917C0230917D0228173907B9F411
:103A700090913A0280913B02981789F0E0913A02C6
:103A8000F0E0E45CFD4F808120913A0230E02F5F4E
:103A90003F4F2F73332720933A0290E008958FEF22
:103AA0009FEF089520917C0230917D0228173907FD
:103AB00081F490913A0280913B02981751F0E09185
:103AC0003A02F0E0E45CFD4F8081992787FD9095F4
:103AD00008958FEF9FEF089520917C0230917D0231
:103AE0002817390771F480913B0220913A0290E047
:103AF000805C9F4F821B910960E470E00E94ED2E74
:103B0000089580E090E0089520917C0230917D023C
:103B10002817390739F48FB7F89410923B021092A6
:103B20003A028FBF0895DC015196ED91FC915297B6
:103B3000208150968C91809582238083089520E087
:103B400001972FEF8F3F9207D9F7089520917C02BC
:103B500030917D022817390789F0FC01238D2E7FD3
:103B6000238F2FB7F89410923B0210923A02909351
:103B70007D0280937C022FBF81E0089580E008954C
:103B8000EF92FF920F931F93CF93DF93EC018B8DF6
:103B9000EE85FF859D8581FF04C08081892329F4FE
:103BA00045C08081892309F041C08B899C890E948E
:103BB0009F1D08E010E0EE24E394F12C8D899E898E
:103BC0000E949F1DEE85FF8580819D85892311F0D0
:103BD000FE2803C08E2D8095F822EE0C01501109AD
:103BE00069F78F89988D0E949F1D8B8D81FDF094C0
:103BF00080913B0220913A0290E001968F739927C1
:103C000030E08217930779F0E0913B02F0E0E45C4A
:103C1000FD4FF08280913B0290E001968F739927CF
:103C200080933B0203C08B8D81608B8FDF91CF919E
:103C30001F910F91FF90EF900895611102C00C94B5
:103C4000931DDC015196ED91FC9152972081509685
:103C50008C91282B20830895DF92EF92FF920F938F
:103C60001F93CF93DF93EC01E62E898D9A8D892BDC
:103C700039F481E090E09B838A8380E090E049C042
:103C8000DFB6F8946B8D66956170CE010E941D1EA3
:103C9000898D9A8D05960E949F1D8B8D08E010E0FE
:103CA000FF24F39481FF17C08F2D8E2121F0CE01C8
:103CB0000E94931D04C061E0CE010E941D1E898DEB
:103CC0009A8D0E949F1DFF0C0150110969F7CE01CA
:103CD0000E94931D17C08F2D8E2129F061E0CE0127
:103CE0000E941D1E03C0CE010E94931D898D9A8DD6
:103CF0000E949F1DFF0C0150110969F761E0CE0180
:103D00000E941D1EDFBE898D9A8D0E949F1D81E03D
:103D100090E0DF91CF911F910F91FF90EF90DF9096
:103D2000089580917C0290917D02009711F00C948F
:103D3000C01D08951F920F920FB60F9211242F935A
:103D40003F934F935F936F937F938F939F93AF9323
:103D5000BF93EF93FF930E94911EFF91EF91BF914C
:103D6000AF919F918F917F916F915F914F913F9113
:103D70002F910F900FBE0F901F9018951F920F92CA
:103D80000FB60F9211242F933F934F935F936F932E
:103D90007F938F939F93AF93BF93EF93FF930E9473
:103DA000911EFF91EF91BF91AF919F918F917F9164
:103DB0006F915F914F913F912F910F900FBE0F9098
:103DC0001F9018951F920F920FB60F9211242F93E8
:103DD0003F934F935F936F937F938F939F93AF9393
:103DE000BF93EF93FF930E94911EFF91EF91BF91BC
:103DF000AF919F918F917F916F915F914F913F9183
:103E00002F910F900FBE0F901F9018951F93CF9377
:103E1000DF93EC01162F61E0812F0E9408186B8D53
:103E20006695617081E06827812F0E944118812F7B
:103E300090E0FC01EA5DFA4FE491E88BFC01E65C5E
:103E4000FA4FE491F0E0EE0FFF1FE85AFA4F859128
:103E500094919A8B898BDF91CF911F9108951F9335
:103E6000CF93DF93EC01162F60E0812F0E9408189A
:103E70008B8D81FD04C061E0812F0E9441181C8759
:103E8000812F90E0FC01EA5DFA4FE491ED87FC019F
:103E9000E65CFA4FE491F0E0EE0FFF1FE25BFA4FB1
:103EA000859194919F878E87DF91CF911F9108957F
:103EB000FF920F931F93CF93DF93EC01F62E522FB7
:103EC0001B821A8208EE13E020E030E00C831D8391
:103ED0002E833F838AE391E0998388831C8A1B8A1F
:103EE0001E8A1D8A188E1F8A1A8E198E8B8D8E7FC0
:103EF00050FB81F98B8F642FCE010E94061F6F2D1E
:103F0000CE01DF91CF911F910F91FF900C942F1F45
:103F10000F931F93CF93DF93EC011A8E198E188E97
:103F20001F8A1E8A1D8AACE6B5E080E090E0FD01A4
:103F30000591159125913491041715072607370728
:103F400009F031C02CE0289FF001299FF00D1124C9
:103F5000E059FA4F259134913C8B2B8B2CE0289F14
:103F6000F001299FF00D1124EE58FA4F259134915C
:103F70003E8B2D8B2CE0289FF001299FF00D112402
:103F8000EC58FA4F25913491388F2F8B2CE0289FD5
:103F9000F001299FF00D1124EA58FA4F8591949170
:103FA0009A8F898F08C001961C968D30910509F073
:103FB000BECF1C8A1B8A8F89988D892B09F443C038
:103FC0008C858631E0F520916800883050F091E0D2
:103FD0008E3008F490E081E001C0880F9A95EAF7EE
:103FE00001C084E0822B809368002C85283038F053
:103FF0002E3040F0263148F0E0E0F0E008C0EDE679
:10400000F0E005C0EBE6F0E002C0ECE6F0E0308165
:10401000283030F481E001C0880F2A95EAF70DC0FE
:10402000822F90E02E3010F4089701C00E9791E097
:1040300001C0990F8A95EAF7892F832B8083898D98
:104040009A8D0E949F1DCE01DF91CF911F910F91FC
:104050000C94A61DCF93DF93EC011F861E86198258
:104060000E9443176A837B838C839D830E9443173E
:104070006E837F838887998788EE93E09B878A8702
:1040800084E690E09D878C871882DF91CF91089518
:10409000FC01862F608360E00C940818CF93DF93B7
:1040A000EC018881882319F061E00E94411881E0C9
:1040B0008F87DF91CF910895FC0161830895FC0102
:1040C0002181223010F0738762870895CF92DF92AA
:1040D000EF92FF92CF93DF93EC0188810E947718D3
:1040E0002F8530E08217930709F480C089818230E0
:1040F000B1F028F4882341F0813061F08FC0833023
:1041000091F08430B1F18AC08E85811187C081E041
:104110008E8785C09E85911117C08E8765C08E855C
:1041200081112AC003C08E85811110C081E08E8765
:104130000E9443176A837B838C839D830E9443176D
:104140006E837F838887998781E069C00E944317C7
:104150002A853B85CA80DB80EC80FD80C20ED31EA1
:10416000E11CF11CC616D706E806F90608F056C091
:1041700014C08E85882351F10E9443172A853B8500
:10418000CA80DB80EC80FD80C20ED31EE11CF11CD6
:10419000C616D706E806F906B8F60E9443172C851E
:1041A0003D85CE80DF80E884F984C20ED31EE11CF9
:1041B000F11CC616D706E806F90680F50E944317DB
:1041C0006E837F838887998784E029C081E08E870A
:1041D0000E9443176A837B838C839D830E944317CD
:1041E0006E837F838887998782E019C08E858823B4
:1041F00041F08981813011F0843019F41E8683E00A
:104200000EC01E860E9443176A837B838C839D8326
:104210000E9443176E837F838887998780E0DF91B0
:10422000CF91FF90EF90DF90CF900895FC017183C4
:104230006083538342831682178210861186089505
:1042400063FF02C088E201C088E06770682B88E1E4
:1042500090E00FB6F894A895809360000FBE60932D
:104260006000809160008064809360000895A8954C
:1042700008958F929F92AF92BF92CF92EF920F9339
:104280001F93CF93DF93EB0148015901BA01CE018F
:104290000E94CA1A2E2D30E0B501A401CE010E9461
:1042A000051CCC2069F0CE01DF91CF911F910F91B9
:1042B000EF90CF90BF90AF909F908F900C94F81A92
:1042C000DF91CF911F910F91EF90CF90BF90AF9062
:1042D0009F908F900895FC01208131812E5F3F4F88
:1042E000828193816817790714F0C901089546E027
:1042F000469FC001479F900D1124820F931F089580
:10430000EF92FF920F931F93CF93DF931F92CDB73E
:10431000DEB78B017A01041B150B215058F0C80140
:104320008E0D9F1D29830E940F31F70181937F011C
:104330002981F3CF0F90DF91CF911F910F91FF90C3
:10434000EF9008950F931F93CF93DF938C01EB01B0
:10435000FC016081718122E0AE010E9480212881F0
:104360002F3F11F4188208C0F8018281938130E058
:10437000821793070CF48883298130E0F801828149
:104380009381281739070CF01982DF91CF911F9183
:104390000F9108950F931F93CF93DF938C01EA0140
:1043A0000E946B2126E0AE01BC01C8010E94802161
:1043B0008881998198838983DF91CF911F910F9193
:1043C00008957F928F929F92AF92BF92CF92DF9289
:1043D000EF92FF920F931F93CF93DF93CDB7DEB78A
:1043E0002D970FB6F894DEBF0FBECDBF4C015B0119
:1043F000BE01655F7F4F4D870E94A2214D854423FA
:1044000021F08B85882309F46DC068E676E0C5014C
:104410000E940C1B64E576E0C5010E940C1B0B8515
:1044200010E020E030E0CC24C3944AE0E42E44E4E1
:1044300056E0B501C4010E9439210C8510E020E04E
:1044400030E046E356E0B501C4010E943921712CE9
:104450008B85781608F046C0672D70E0AE014F5F7F
:104460005F4FC4010E94CA214AE050E0672DC50198
:104470000E94121C1F82188619861A8689819A81C9
:1044800098878F83CF80D884E984FA8464E276E0C9
:10449000C5010E94CA1A20E130E0B701A601C5019A
:1044A0000E94051C62E176E0C5010E94CA1AB701AC
:1044B000A601440F551F661F771F20E130E0C5019C
:1044C0000E94051C0B811C812D813E81CC24C3944C
:1044D00090E1E92E48E056E0B501C4010E9439217F
:1044E0007394B6CF2D960FB6F894DEBF0FBECDBF36
:1044F000DF91CF911F910F91FF90EF90DF90CF90C0
:10450000BF90AF909F908F907F900895EF92FF9211
:104510000F931F93CF93DF931F92CDB7DEB77B012D
:104520008A01260F2E1561F0F80161918F01C701F4
:1045300029830E941D31FFEFEF1AFF0A2981F2CF74
:104540000F90DF91CF911F910F91FF90EF90089501
:10455000AB01FC016081718122E00C948622CF9333
:10456000DF93EC010E946B21AE014C5F5F4F26E0B0
:10457000BC01CE01DF91CF910C948622CF93DF93C3
:1045800000D0CDB7DEB78C017B01BE016F5F7F4FDE
:104590000E94A221F70180819181F8019583848393
:1045A0006A8170E0C8010E94AF222A812F5F2A83AE
:1045B00030E0F801828193812817390714F01A82BC
:1045C00003C089818F5F8983BE016F5F7F4FC80100
:1045D0000E94A8222BE088E190E00FB6F894A895FD
:1045E000809360000FBE20936000FFCF6DB77EB751
:1045F0006F5F7F4F8AE891E00E94BE226AE00E94CE
:10460000E12E20E1829F900D1124892F0895982F8B
:1046100092959F708F702AE0929F800D11240895CB
:1046200089E992E00C94F829CF93DF93EC0168E6D6
:1046300070E089E992E00E941C2A60E089E992E03A
:104640000E94B92988810E94FE22682F89E992E0A0
:104650000E94B92989810E94FE22682F89E992E08F
:104660000E94B9298A810E94FE22682F89E992E07E
:104670000E94B9298B810E94FE22682F89E992E06D
:104680000E94B9298C810E94FE22682F89E992E05C
:104690000E94B9298D810E94FE22682F89E992E04B
:1046A0000E94B9298E818E510E94FE22682F89E9CD
:1046B00092E00E94B92989E992E0DF91CF910C94B0
:1046C0002E2ACF93DF93CDB7DEB727970FB6F89496
:1046D000DEBF0FBECDBFAE014F5F5F4F0E94AB2666
:1046E000898180688983CE0101960E941423898183
:1046F0008F778983CE0101960E94142327960FB6E7
:10470000F894DEBF0FBECDBFDF91CF910895CF9358
:10471000DF93EC0168E670E089E992E00E941C2AD0
:1047200060E089E992E00E94B92989E992E00E945B
:104730002E2A47E050E068E670E089E992E00E94A6
:104740000F2A89E992E00E9469298F770E94072346
:10475000888389E992E00E9469290E94072389835E
:1047600089E992E00E9469298F730E9407238A8356
:1047700089E992E00E9469290E9407238B8389E9D5
:1047800092E00E9469290E9407238C8389E992E0C4
:104790000E9469290E9407238D8389E992E00E9483
:1047A00069290E940723825E8E83DF91CF9108954D
:1047B000CF93DF93CDB7DEB727970FB6F894DEBF60
:1047C0000FBECDBFCE0101960E948723CE01019678
:1047D0000E94B02727960FB6F894DEBF0FBECDBF5C
:1047E000DF91CF910895FC0166834783208781E0A4
:1047F00085870895CF93DF93EC0160E08E810E945E
:10480000081861E08E810E94411819861A861B865D
:104810001C86DF91CF910895DF92EF92FF920F9364
:104820001F93CF93DF93EC0161E08E810E944118CA
:104830006AEF70E080E090E00E9472170E944317D8
:1048400009851A852B853C856017710782079307B8
:1048500020F419861A861B861C862D85211111C00D
:1048600009851A852B853C85DC01CB01801B910BCA
:10487000A20BB30B803D9740A105B10510F481E078
:1048800071C01D860E94431769877A878B879C8732
:104890001C821B821A821982188261E08E810E941A
:1048A000081860E08E810E94411864E170E080E0A9
:1048B00090E00E947217F89461E08E810E94411886
:1048C00088E290E00E949A1760E08E810E940818AA
:1048D000F12CD12C81E0E12C082F10E08E810E9478
:1048E00077188017910741F4E39481E090E00E94EB
:1048F0009A178FEFE812F2CF8E810E9477189FEF00
:10490000E916C9F023E02F1590F4F0FC10C09D2D9E
:10491000969596959695FE01E90FF11D9081990F58
:10492000908328852E1510F491609083D394F3948E
:1049300095E5F912D0CF789427E22D1590F42C81CB
:1049400030E04881898190E0840F911D4A81840F75
:10495000911D4B81840F911D99272817390709F460
:104960008ECF80E0DF91CF911F910F91FF90EF905C
:10497000DF900895CF92DF92EF92FF920F931F93F3
:10498000CF93DF93EC01162F0E940C24882309F4A7
:1049900050C08F818B3031F008F44BC0855182308C
:1049A00078F047C06A8170E080E090E00E94C42DFA
:1049B000112309F449C020E030E040E151E42AC06D
:1049C0000A81602F6F7770E080E090E00E94C62D32
:1049D00020E030E040E853E40E947A2E6B017C0135
:1049E0006B8170E080E090E00E94C62D9B01AC01DD
:1049F000C701B6010E94C32C20E030E040E251E440
:104A00000E942B2D07FD9058112309F120E030E082
:104A100040E151E40E947A2E20E030E040EA50E488
:104A20000E942B2D20E030E040E052E40E94C32C95
:104A30000EC066E471E08DE991E00E94EF1A20E07B
:104A400030E040EC5FE705C09B01AC0102C09B0178
:104A5000AC01B901CA01DF91CF911F910F91FF9075
:104A6000EF90DF90CF900895CF92DF92EF92FF9278
:104A7000CF93DF93EC010E940C24882379F18F817E
:104A80008B3029F158F18551823040F5688170E012
:104A900080E090E00E94C42D20E030E040E853E444
:104AA0000E947A2E6B017C01698170E080E090E0C9
:104AB0000E94C62D9B01AC01C701B6010E94C32C08
:104AC00020E030E040E251E40E942B2D11C06881CB
:104AD00070E080E090E00E94C42D0AC066E471E0BE
:104AE0008DE991E00E94EF1A60E070E080EC9FE7B2
:104AF000DF91CF91FF90EF90DF90CF900895FC0170
:104B00001382128224E531E0318320830895EF92ED
:104B1000FF920F931F93CF93DF938C01E62E6EE3EA
:104B200070E089E992E00E941C2AE801F12CCE0194
:104B3000801B910B8E159F0534F4699189E992E0F1
:104B40000E94B929F4CF89E992E0DF91CF911F91BA
:104B50000F91FF90EF900C942E2ACF93DF9300D00B
:104B6000CDB7DEB790E899838A8362E0CE010196E3
:104B70000E9487250F900F90DF91CF91089581E0DB
:104B80000E94AD2580ED97E00C949A17FC01858179
:104B9000982F946095838C600C94AD25FC018581E1
:104BA0008E7F858388600C94AD25CF93DF9300D0F2
:104BB000CDB7DEB7411102C0606801C0606C80E80B
:104BC00089836A8362E0CE0101960E9487250F9057
:104BD0000F90DF91CF910895CF93DF9300D0CDB7A1
:104BE000DEB780E489836A8362E0CE0101960E9489
:104BF000872581E090E00F900F90DF91CF9108958D
:104C00001F93CF93DF931F92CDB7DEB7162F62E6C7
:104C100070E089E992E049830E941C2A612F89E9AA
:104C200092E00E94B9294981642F89E992E00E94AB
:104C3000B92989E992E00F90DF91CF911F910C94EF
:104C40002E2AEF92FF921F93CF93DF931F92CDB73F
:104C5000DEB77C01142F462F64E029830E940026D2
:104C6000412F63E0C7010E9400262981422F62E0A4
:104C7000C7010F90DF91CF911F91FF90EF900C949F
:104C800000260F931F93CF93DF9300D0CDB7DEB7ED
:104C90008C0189E992E02A8349830E94F82949819D
:104CA0002A81423020F0F801848188608483F801F1
:104CB00040871186222329F0413019F484818460D1
:104CC000848380E593EC0E949A17F80184818062C6
:104CD0000E94AD2584E991E10E949A17F801848130
:104CE00080620E94AD2586E990E00E949A17F80143
:104CF000848180620E94AD25F801848180620E94D7
:104D0000AD2584E0F8018583C8010E94C625C8014D
:104D10000E94BF2582E0F801868386E00E94AD25CF
:104D200040E060E0C8010E94002640E061E0C80168
:104D30000E9400264AEA68E0C8010E9400262FEF80
:104D40004FEF6FEFC8010F900F90DF91CF911F9140
:104D50000F910C9421266F927F928F929F92AF9227
:104D6000BF92CF92DF92EF92FF920F931F93CF9358
:104D7000DF93EA012CE3C22ED12CE12CF12CA70108
:104D800096010E94012F6883CA01B901A70196010B
:104D90000E94012F6983CA01B90128E130E040E097
:104DA00050E00E94012F49015A016A83CA01B901EA
:104DB0006C5F7F4F8F4F9F4F27E030E040E050E027
:104DC0000E94012F6F5F6B8300E010E0980140E0CC
:104DD00054E6652E712C60E9C62EDD24D394E42FB1
:104DE000F0E0EE54F84F7F0183E0E822FF24E11465
:104DF000F10489F4CF01B3010E94ED2E892B29F033
:104E00008EE691E0A0E0B0E00AC0CF01B6010E94BA
:104E1000ED2E892BA9F38DE691E0A0E0B0E0080F1C
:104E2000191F2A1F3B1FD901C801AA27BB278816B3
:104E30009906AA06BB0610F04F5FD1CF4E83E1144E
:104E4000F10499F4CF0164E670E00E94ED2E892B05
:104E500029F08EE691E0A0E0B0E00BC0CF0160E960
:104E600071E00E94ED2E892BA1F38DE691E0A0E088
:104E7000B0E0081B190B2A0B3B0B801A910AA20AFF
:104E8000B30ACF0164E670E00E94ED2E9C01CF01D1
:104E900060E971E00E94ED2EE8E5F1E0A0E0A130CC
:104EA00059F4E114F10451F42115310511F04DE1EB
:104EB00006C00097E1F302C0408101C04CE150E020
:104EC00060E070E084169506A606B70640F0841AE6
:104ED000950AA60AB70AAF5F3196AC3001F7AF5F0B
:104EE000AD8383948C82DF91CF911F910F91FF90BE
:104EF000EF90DF90CF90BF90AF909F908F907F907A
:104F00006F900895CF92DF92EF92FF926B017C0138
:104F100080918E0290918F02A0919002B0919102A7
:104F2000C816D906EA06FB0671F042E952E0C7014D
:104F3000B6010E94AB26C0928E02D0928F02E09200
:104F40009002F0929102FF90EF90DF90CF90089541
:104F50000E9482278091980290E08E54984F089585
:104F60006F927F928F929F92AF92BF92CF92DF9279
:104F7000EF92FF920F931F93CF93DF93FC01C680B4
:104F8000AC2DB0E020E833E341EE51E00E94322F37
:104F90004B015C0122EB37E06D01C4E6D0E000E993
:104FA00011E0C901825B97408C159D05DCF4C901B5
:104FB00083709927892B99F4C901BE010E94ED2EB7
:104FC000892B31F4C901B8010E94ED2E892B39F4E7
:104FD00080E8880E81E5981E81E0A81EB11C2F5F35
:104FE0003F4FDFCF6580712C8EE4C81A88EFD80A56
:104FF000C60164E670E00E94ED2E8C01C60160E9F6
:1050000071E00E94ED2E7C01C1E0D0E083E0C82277
:10501000DD24C615D7052CF5C230D10589F4C1149D
:10502000D10471F40115110519F4E114F10441F4EE
:1050300080E8880E8BE3981E86E2A81EB11C0FC084
:10504000DE01A95ABE4FAC91B0E020E831E541E065
:1050500050E00E94322F860E971EA81EB91E219680
:10506000D8CF4181228130E0A0E1BEE00E94232F11
:105070006B017C01242F30E0ACE3B0E00E94232FD1
:10508000C60ED71EE81EF91E8081C80ED11CE11C79
:10509000F11CA481B0E0119720E831E541E050E037
:1050A0000E943D2FC60ED71EE81EF91EC80CD91C43
:1050B000EA1CFB1CC701B601DF91CF911F910F9134
:1050C000FF90EF90DF90CF90BF90AF909F908F9028
:1050D0007F906F9008950F931F9360938A0270934F
:1050E0008B0280938C0290938D02009106011091A7
:1050F00007012091080130910901060F171F281F91
:10510000391F00938202109383022093840230930C
:10511000850282E090E090938102809380020E9459
:10512000431760938602709387028093880290935E
:1051300089021F910F910895CF92DF92EF92FF9213
:105140000F931F930E944317C0908602D09087024E
:10515000E0908802F09089026C197D098E099F0900
:1051600000918A0210918B0220918C0230918D0265
:10517000683E734081059105D8F00F5F1F4F2F4F98
:105180003F4F00938A0210938B0220938C0230933E
:105190008D0248EEC40E43E0D41EE11CF11CC09207
:1051A0008602D0928702E0928802F0928902CACFEA
:1051B0008091820290918302A0918402B091850235
:1051C000081719072A073B07E8F0E0917E02F091E3
:1051D0007F023097B9F00995611571058105910538
:1051E00019F00E946B280EC081E090E020918002AF
:1051F00030918102232B11F480E090E090938102A2
:105200008093800260918A0270918B0280918C025F
:1052100090918D021F910F91FF90EF90DF90CF90B2
:1052200008950E949C280E9482278091940290E019
:1052300008950E949C280E9482278091930290E00A
:1052400008950E949C280E9482278091920290E0FB
:1052500008950E949C280E9482278091960290E0E7
:1052600008950E949C280E9482278091950290E0D8
:1052700008950E949C280E9482278091970290E0C6
:1052800008950E949C280C94A827809180029091F8
:105290008102089590937F0280937E0280918A021A
:1052A00090918B02A0918C02B0918D02809382022A
:1052B00090938302A0938402B09385020C949C285F
:1052C00008958091C90290E02091CA02821B910941
:1052D00008952091CA028091C902281750F4E22F44
:1052E000F0E0E553FD4F808190E02F5F2093CA02EC
:1052F00008958FEF9FEF0895E091CA028091C9024F
:10530000E81730F4F0E0E553FD4F808190E0089518
:105310008FEF9FEF08950895CF92DF92EF92FF9263
:105320000F931F93CF93DF937C01CB018A012091D0
:10533000A502222389F0EB016B01C40ED51ECC150A
:10534000DD0569F06991D701ED91FC910190F08143
:10535000E02DC7010995F3CF642F0E94682AC80188
:10536000DF91CF911F910F91FF90EF90DF90CF9041
:105370000895CF93DF931F92CDB7DEB76983209155
:10538000A5022223D1F02091A602203240F021E094
:1053900030E0FC013383228380E090E015C08091EF
:1053A000A702E82FF0E0E855FD4F998190838F5FC9
:1053B0008093A7028093A60205C061E0CE0101960A
:1053C0000E94682A81E090E00F90DF91CF910895CC
:1053D000FC011382128248EE53E060E070E04483E7
:1053E00055836683778388E691E09183808308956F
:1053F0001092CA021092C9021092A7021092A6023D
:105400000C94352A862F413208F040E26BEC72E0B2
:105410000E94C22A1092CA028093C902089521E014
:105420000C94022A81E08093A5026093C802109236
:10543000A7021092A60208950C94122A21E040912E
:10544000A60268EA72E08091C8020E94142B1092B2
:10545000A7021092A6021092A502089561E00C9492
:105460001E2A89E992E00C94E829ACEBB0E01C928A
:1054700010920003449A459AE9EBF0E080818E7F18
:10548000808380818D7F808388E48093B80085E469
:105490008C9361E070E080E290E00E945F2F909337
:1054A000FA028093F90261E070E080E290E00E94ED
:1054B0005F2F9093F6028093F50261E070E080E246
:1054C00090E00E945F2F9093F2028093F102089582
:1054D0006132A8F420910003243099F46093F30220
:1054E000282FA091F502B091F602FC018E2F821BAD
:1054F000861718F481918D93F9CF80E0089581E0AB
:10550000089582E0089585EC8093BC00109200031A
:105510000895882349F01092EB021092EC02109249
:10552000ED021092EE0213C08091EB029091EC021A
:10553000A091ED02B091EE020196A11DB11D8093E4
:10554000EB029093EC02A093ED02B093EE028091F7
:10555000EB029091EC02A091ED02B091EE02803A44
:105560009648A140B10560F01092EB021092EC0257
:105570001092ED021092EE020E94352A81E0089509
:1055800080E008950F931F93CF93DF93082F162F7A
:10559000D72FC42F413208F041C081E00E94892AF0
:1055A00080910003882329F080E00E94892A8823C3
:1055B000B9F381E0809300038FEF8093EF021092A4
:1055C000F8028C0F8093F702802F880F8160809300
:1055D000FF0285EE8093BC0081E00E94892A8091C1
:1055E0000003813029F480E00E94892A8823B9F3DE
:1055F0008091F8028C1710F4C091F8028091F902A2
:10560000A12FBD2FE82FF091FA029E2F981B9C1717
:1056100018F491919D93F9CF8C2F01C080E0DF9118
:10562000CF911F910F910895FF920F931F93CF93E6
:10563000DF93082FD62FF72EC42F122F81E041328F
:1056400008F051C00E94892A80910003882339F014
:1056500080E00E94892A8823B9F385E044C082E073
:10566000809300038FEF8093EF021092F802C093B3
:10567000F7029D2FA091F902B091FA02ED2FFF2DB4
:105680008E2F891B8C1718F481918D93F9CF802F61
:1056900090E0880F991F8093FF0285EE8093BC00F5
:1056A00081E00E94892A11110AC08091EF028F3F88
:1056B00059F414C080E00E94892A8111CECF8091D4
:1056C00000038230B9F3F1CF8091EF02803241F0D4
:1056D0008091EF02803331F483E005C080E003C0A5
:1056E00082E001C084E0DF91CF911F910F91FF9084
:1056F000089585ED8093BC0081E00E94892A809105
:10570000BC0084FF06C080E00E94892A8823B9F388
:1057100002C01092000308951F920F920FB60F92CD
:1057200011242F933F934F935F936F937F938F93A6
:105730009F93AF93BF93EF93FF938091B900887FBE
:10574000803609F4A0C078F5883209F45DC090F481
:10575000803109F456C038F4882309F4FEC088303B
:1057600009F44FC0FEC0883109F44EC0803209F4FC
:1057700063C0F7C0803409F471C058F4803309F471
:105780005BC0883309F0EDC08093EF020E94832A4A
:10579000E8C0803509F453C0883509F464C0883402
:1057A00009F0DFC0DCC0883909F4CDC0A8F488371F
:1057B00009F469C038F4883609F465C0803709F403
:1057C00062C0CFC0883809F4BEC0803909F461C016
:1057D000803809F0C6C05DC0803B09F486C038F44B
:1057E000803A09F46BC0883A09F47FC0BAC0803CA3
:1057F00009F4ADC0883C09F4AAC0883B09F48DC007
:10580000B0C08091FF0214C09091F8028091F7021D
:10581000981708F0A4C0E091F902F091FA02809183
:10582000F80291E0980F9093F802E80FF11D808143
:105830008093BB0085EC88C08093EF0290C0E0911C
:10584000F902F091FA028091F80291E0980F90939A
:10585000F8029091BB00E80FF11D90839091F8023F
:105860008091F7026DC0E091F902F091FA02809107
:10587000F80291E0980F9093F8029091BB00E80F26
:10588000F11D90836CC083E0809300031092F002BE
:10589000D1CF8091F002803208F055C0E091F10242
:1058A000F091F2028091F00291E0980F9093F00253
:1058B0009091BB00E80FF11D9083BCCF2091F002C6
:1058C0008091F1029091F202203230F42091F002A6
:1058D000FC01E20FF11D10826091F00270E0E09196
:1058E000FB02F091FC02099532C084E08093000332
:1058F0001092F4021092F302E091FD02F091FE0288
:1059000009958091F302811108C081E08093F30230
:10591000E091F502F091F6021082E091F502F0912B
:10592000F6028091F40291E0980F9093F402E80F50
:10593000F11D80818093BB009091F4028091F3026D
:10594000981708F477CF85E88093BC000AC085ECEF
:105950008093BC001092000304C01092EF020E94DA
:10596000792BFF91EF91BF91AF919F918F917F9193
:105970006F915F914F913F912F910F900FBE0F90BC
:105980001F9018955058BB27AA270ED075C166D115
:1059900030F06BD120F031F49F3F11F41EF45BC165
:1059A0000EF4E095E7FB51C1E92F77D180F3BA17E8
:1059B000620773078407950718F071F49EF58FC18D
:1059C0000EF4E0950B2EBA2FA02D0B01B90190011A
:1059D0000C01CA01A0011124FF27591B99F0593F5E
:1059E00050F4503E68F11A16F040A22F232F342FA6
:1059F0004427585FF3CF469537952795A795F040F4
:105A00005395C9F77EF41F16BA0B620B730B840B08
:105A1000BAF09150A1F0FF0FBB1F661F771F881FC0
:105A2000C2F70EC0BA0F621F731F841F48F4879518
:105A300077956795B795F7959E3F08F0B3CF939507
:105A4000880F08F09927EE0F979587950895D9D07C
:105A500008F481E008950CD00FC107D140F0FED0CA
:105A600030F021F45F3F19F0F0C0511139C1F3C09B
:105A700014D198F39923C9F35523B1F3951B550B12
:105A8000BB27AA2762177307840738F09F5F5F4F11
:105A9000220F331F441FAA1FA9F333D00E2E3AF052
:105AA000E0E830D091505040E695001CCAF729D06C
:105AB000FE2F27D0660F771F881FBB1F26173707BB
:105AC0004807AB07B0E809F0BB0B802DBF01FF27EB
:105AD00093585F4F2AF09E3F510568F0B6C000C151
